:100000000C9466000C9470000C9470000C947000BA
:100010000C9470000C9470000C9470000C947000A0
:100020000C9470000C9470000C9470000C94700090
:100030000C9470000C9470000C9470000C94700080
:100040000C9470000C9470000C9470000C94700070
:100050000C9470000C9470000C9470000C94700060
:100060000C9470000C9470000C9470000C94700050
:100070000C9472000C9470000C9470000C9470003E
:100080000C9470000C9470000C9470000C94700030
:100090000C9470000C9470000C9470000C94700020
:1000A0000C9470000C9470000C9470000C94700010
:1000B0000C9470000C9470000C9470000C94700000
:1000C0000C9470000C9470000C94700011241FBEEE
:1000D000CFEFD8E0DEBFCDBF0E94CA000C94FB007A
:1000E0000C9400008F938FB78F939F938091CE00D5
:1000F0008053883020F492B1987F892B82B99F91E8
:100100008F918FBF8F911895CF93DF9300D000D040
:10011000CDB7DEB769837A838B839C8380E9809334
:10012000C90086E08093CA0029813A814B815C81B5
:10013000220F331F441F551F220F331F441F551F0B
:10014000220F331F441F551F220F331F441F551FFB
:1001500060E074E284EF90E00E94D9002150310900
:100160003093CD002093CC0078940F900F900F9097
:100170000F90DF91CF9108958BEE80936400E5E6B8
:10018000F0E0808183608083E3E6F0E080818F602F
:100190008083089581B1876081B982B1876082B917
:1001A00060E875E280E090E00E9484000E94BC005C
:1001B000FFCFA1E21A2EAA1BBB1BFD010DC0AA1F77
:1001C000BB1FEE1FFF1FA217B307E407F50720F0C0
:1001D000A21BB30BE40BF50B661F771F881F991F3B
:1001E0001A9469F760957095809590959B01AC0184
:0A01F000BD01CF010895F894FFCF80
:00000001FF
